:100000000C9434000C943E000C943E000C943E0082
:100010000C943E000C943E000C943E000C943E0068
:100020000C943E000C943E000C943E000C943E0058
:100030000C943E000C943E000C943E000C943E0048
:100040000C943E000C943E000C943E000C943E0038
:100050000C943E000C943E000C943E000C943E0028
:100060000C943E000C943E0011241FBECFEFD8E04C
:10007000DEBFCDBF0E9440000C9471000C940000C4
:100080008FEF84B987B1866087B9389888B1897F46
:1000900088B9409880E480937C0087E880937A0058
:1000A00080917A00806480937A0080917A0084FF46
:1000B000FCCF209178003091790080917A008061A6
:1000C00080937A0025B9419A85E08A95F1F700007E
:1000D000419835B9429A85E08A95F1F70000429837
:0600E000DFCFF894FFCF12
:00000001FF
